:020000040800F2
:10000000700B00200101000869360008FD27000878
:10001000E93100088D0F0008CD55000800000000F0
:10002000000000000000000000000000CD420008B9
:10003000F119000800000000953A0008FD4A000888
:100040001B0100081B0100081B0100081B01000820
:100050001B0100081B0100081B0100081B01000810
:100060001B0100081B0100081B0100081B01000800
:100070001B0100081B0100081B0100081B010008F0
:100080001B0100081B0100081B0100081B010008E0
:10009000C55500081B0100081B0100081B010008D2
:1000A0001B010008D14B00081B0100081B010008C0
:1000B0001B0100081B0100081B0100081B010008B0
:1000C0001B0100081B0100081B0100081B010008A0
:1000D0001B0100081B0100081B0100081B01000890
:1000E0001B0100081B0100081B010008DFF80CD0F1
:1000F00000F0DAFB0048004711640008700B002094
:100100000648804706480047FEE7FEE7FEE7FEE7B1
:10011000FEE7FEE7FEE7FEE7FEE7FEE70D4B000821
:10012000ED000008F0B480EA0102D40F4200B2EB07
:10013000410F02D20246084611464A0042D0C30D82
:10014000DDB2C1F3C752AD1A202D35DAC1F3160165
:1001500041F4000204B15242C5F1200602FA06F150
:100160002A411044B3EBD05F23D0C4B1012DA0EBE2
:10017000C35009DCF0BC4FF0004202EAC352DBB2CC
:1001800000F5000000F054BA400000F1807000EB70
:10019000C350A0F1807040EAD170490009E04908DD
:1001A00041EAC071A0EBC35000F50000400800EB2D
:1001B000C350F0BC00F033BA6142012202EB4101AE
:1001C000001BF6E7F0BC704781F00041AAE780F021
:1001D0000040A7E780EA010210B502F000434000AA
:1001E00022D04A001FD0010E01EB1261C0F356006D
:1001F000C2F3560240F4000042F40002A0FB0220C9
:1002000000047F39140400D0401C50EA124001D48D
:100210004000491EC2B20C0604EBD010401C40083E
:10022000802A02D003E0002010BD20F00100002948
:1002300000DA0020184310BD30B480EA010202F059
:10024000004530F0004221F0004013D090B1C30DC2
:10025000D40DC2F31601C0F31600E41A41F40001F4
:1002600040F400027D34914201D3641C00E0490057
:10027000002C02DA30BC002070474FF4000000234D
:10028000914201D3891A034340084FEA4101F7D153
:1002900051B1914202D14FF0004105E002D24FF03E
:1002A000010101E06FF0010103EBC450284430BCB0
:1002B00000F0B5B92DE9FE4F804681EA0300C00F7A
:1002C0000C46009021F0004123F00045B8EB0200FD
:1002D000A94105D24046214690461C460B4602469F
:1002E00023F00040104347D0270DC7F30A00C3F3A3
:1002F0000A510290401A019040286BDAC3F31300B0
:1003000040F4801B0098924620B10023D2EB030AF0
:1003100063EB0B0B01985946C0F14002504600F0C8
:100320005DF906460D4650465946019A00F065F9BA
:1003300010EB08006141002487EA115284EAE77358
:100340001A4340D0009A62B3019A012A4FEA075239
:1003500015DC001B61EB02014FF0004202EA07527C
:10036000CDE90042001C41F5801132462B4600F0D9
:10037000C6F903B0BDE8F08F40462146F9E7001BFF
:1003800061EB0201001C41F5801300185B4120184D
:10039000A2F5001747EB030140EAD570B6196D418D
:1003A00011E06D084FEA360645EAC0754FEA07527C
:1003B000001B61EB0201001C41F5801149084FEA66
:1003C00030000019514132462B4603B0BDE8F04FD2
:1003D00000F086B90098012240000023D0EB020211
:1003E00063EBE073009821464FEAE074B8EB00003D
:1003F00061EB0401E9E783F000435BE781F0004132
:1004000058E72DE9FE4F81EA030404F0004421F08F
:10041000004100944FF0000B23F0004350EA010428
:100420005ED052EA03045BD0C3F30A54C1F30A5509
:100430002C44A4F2F3340194A0FB0254C1F3130141
:1004400041F48011C3F3130343F4801301FB02440E
:1004500000FB034E840A970A44EA815447EA835713
:10046000A4FB076802958D0A05FB07854FEA932CCC
:1004700004FB0C542705029D4FEA065847EA16373D
:10048000B5EB08056EEB070C870E920E47EA811755
:1004900042EA8312A7FB0201B6EB0B0164EB0004F6
:1004A0002B0D43EA0C335E1844EB1C50DA465146E0
:1004B000E7FB0201C5F313044FEA0B3343EA14537D
:1004C0004FEA0432019C43EA0603A4F10C040294AF
:1004D000009CCDE900B400F012F903B0BDE8F08F44
:1004E00000200146F9E7C10F80EAE0700844CA071E
:1004F0009623002100F09CB896230022114600F0BC
:1005000097B80EB5C10F80EAE0700844CA07002111
:1005100040F233438DE80E000A460B4600F0EFF838
:1005200003B000BD00F0004220F00040C10DC0F358
:10053000160040F400007F2901DA00207047962958
:1005400003DCC1F19601C84001E096398840002AD9
:10055000F4D04042704700F0004230F000400AD032
:10056000C10D01F56071C0F3160042EA0151C208E5
:1005700040071143704700200146704701F00043D7
:1005800030B421F0004150EA010206D00A0DA2F574
:100590006072C1F31301002A02DC30BC00207047F6
:1005A000440F44EAC104C100E01830BC00EBC25063
:1005B00000F035B8002801DBC0F10040002901DB64
:1005C000C1F1004181427047002801DBC0F10040C9
:1005D000002901DBC1F1004188427047202A04DB79
:1005E000203A00FA02F1002070479140C2F1200346
:1005F00020FA03F3194390407047202A06DBCB17FB
:10060000203A41FA02F043EAE07306E041FA02F3CD
:10061000D040C2F12002914008431946704700299A
:10062000A8BF7047401C490008BF20F00100704778
:1006300010B4B0FA80FC00FA0CF050EA010404BFD8
:1006400010BC704749B1CCF1200421FA04F411FA2E
:100650000CF118BF012121430843A3EB0C01CB1D72
:100660004FEA00614FEA102042BF002010BC7047E3
:1006700000EBC35010440029A4BF10BC7047401CBD
:10068000490008BF20F0010010BC7047420005D0AF
:10069000C0F3C7525242914201DC0020704700EB88
:1006A000C150704710B541000CD0C0F3C751962916
:1006B00008DC7E2909DC06DB410204D000F00040A2
:1006C00040F07E5010BD002010BDC1F19604C4F171
:1006D000200100FA01F1E040FFF7A1FFA04010BDAA
:1006E00010B5141E73F1000408DA401C41F100013A
:1006F00092185B411A4301D120F0010010BD2DE991
:10070000F04D92469B4611B1B1FA81F202E0B0FA87
:1007100080F220329046FFF761FF04460F4640EA20
:100720000A0041EA0B0153465A46084313D01146CA
:1007300053EA010019D0C8F14002504600F0C6F853
:1007400005460E46504659464246FFF747FF0843C6
:1007500005D0012004E020463946BDE8F08D002098
:10076000054346EAE0762C4337430A986305E40ADA
:10077000A0EB08000022FD0A44EA47540A3002D5E3
:1007800000200146E9E7010510196941DDE9084546
:1007900000196941BDE8F04DA2E72DE9F04D81EA6D
:1007A000030404F0004B21F0004514464FF0000A0A
:1007B00023F0004150EA050220D054EA01021DD086
:1007C000C5F30A570246C5F31303C1F31300C1F37F
:1007D0000A5640F4801543F48013A7EB0608101B5B
:1007E000D64608F2FD3873EB050002D308F1010884
:1007F00001E092185B41B8F1000F03DA00200146D6
:10080000BDE8F08D00204FF48011064684460EE0CE
:10081000171B73EB050705D3121B63EB0503064398
:100820004CEA010C49084FEA300092185B4150EA4B
:100830000107EDD152EA030012D082EA040083EAF4
:100840000501084305D0101BAB4106D2012200234D
:1008500006E000224FF0004302E06FF00102531067
:100860001AEB06004CEB085110EB0A0041EB0B01B0
:10087000BDE8F04DFFF734BF70B521F000430343EE
:100880000CD0C1F30A550024D5EB040564EB040336
:10089000D617AD1AB34102DB0020014670BD201807
:1008A00041EB025170BD0000064C074D06E0E068C8
:1008B00040F0010394E8070098471034AC42F6D3A7
:1008C000FFF718FCC06A0008E06A0008202A04DB71
:1008D000203A21FA02F00021704721FA02F3D040B9
:1008E000C2F1200291400843194670472DE9F04DAE
:1008F00000231A461B1A8A4103DB00200146BDE88B
:10090000F08DC1F30A52C1F3130141F480154FF089
:10091000000BD10702D100186D41521E002704467A
:1009200040F2FF11384601EB620A3E46804602461D
:1009300000204FF48011FFF7C9FFC2197141BB18A5
:1009400046EB0100B4EB030C75EB000C04D3E41A86
:1009500065EB000517460E46241908F101006D41AC
:1009600080463428E3DDF91946EB0600091BA8414F
:1009700003D24FF0FF32134601E0002213461BEB77
:10098000070046EB0A51BDE8F04DFFF7A9BE70B570
:100990008C1810F8015B15F0070301D110F8013B2A
:1009A0002A1106D110F8012B03E010F8016B01F8B1
:1009B000016B5B1EF9D12B0705D40023521E0DD409
:1009C00001F8013BFAE710F8013BCB1A921C03E057
:1009D00013F8015B01F8015B521EF9D5A142D8D38F
:1009E000002070BD10B54FF47A7005F007FB04F0DD
:1009F00027FD02F001FB05F099FD02F0F3FD04F084
:100A000001FC02F01BFF04F045F904F0A7F904F023
:100A1000ADF810BD2DE9F04F87B08246022601AC3B
:100A200000274FF000084FF00009BAF1100F1ED058
:100A300008DCBAF1080F7CD2DFE80AF07BF6DBA70E
:100A40007BF394F5BAF1140F1FD009DCBAF1110F42
:100A500013D0BAF1120F16D0BAF1130F69D113E007
:100A6000BAF1150F12D0BAF1EF0FF7D10CE1A64F82
:100A7000DFF89882DFF8989209E0A64FDFF89882B5
:100A8000DFF8989203E002E000BF00BF00BFEFB1C3
:100A90003869A349FFF79EFB8346FFF743FD00B289
:100AA000ADF8080078699E49FFF794FB8346FFF78D
:100AB00039FD00B2ADF80A00B8699949FFF78AFB21
:100AC0008346FFF72FFD00B2ADF80C00B8F1000F20
:100AD00020D0D8F810009249FFF77CFB8346FFF73F
:100AE00021FD00B2ADF80E00D8F814008C49FFF7D4
:100AF00071FB8346FFF716FD00B2ADF81000D8F881
:100B000018008749FFF766FB8346FFF70BFD00B22D
:100B1000ADF81200B9F1000F22D0D9F810008049C9
:100B2000FFF758FB8346FFF7FDFC00B2ADF8140059
:100B300000E0B0E0D9F814007949FFF74BFB834699
:100B4000FFF7F0FC00B2ADF81600D9F818007449B0
:100B5000FFF740FB8346FFF7E5FC00B2ADF8180055
:100B6000122699E00020ADF80800ADF80A00ADF8B3
:100B70000C00ADF80E00ADF81000ADF81200ADF8A5
:100B80001400ADF81600102686E06648808800B292
:100B9000ADF808006348C08800B2ADF80A006148AB
:100BA000008800B2ADF80C005E48408800B2ADF895
:100BB0000E005C48008900B2ADF810005948408929
:100BC00000B2ADF812005748808900B2ADF81400A9
:100BD0005448C08900B2ADF816005248808900B26E
:100BE000ADF818004F48C08900B2ADF81A001426BD
:100BF00052E04D4801680291416803918068049079
:100C00004A484088ADF8140049480068FFF78AFC5C
:100C100000B2ADF816000020ADF8180012263BE037
:100C200001E030E000E037E0424908684249FFF760
:100C3000D1FA8346FFF776FC00B2ADF808003D49D3
:100C400048683D49FFF7C6FA8346FFF76BFC00B2E0
:100C5000ADF80A00374988683749FFF7BBFA834681
:100C6000FFF760FC404200B2ADF80C000020ADF888
:100C70000E00ADF8100031480078C007C00DADF887
:100C800012000C2608E007E02D48B0F90000ADF88E
:100C90000800022600E000BF00BF4AF6AA20ADF817
:100CA000040046EA0A2000B2ADF806005421301DC7
:100CB000215402251AE06057691C6156484060556E
:100CC000681C205661574840691C60546057615643
:100CD00048406055615D681C205C0144301D205C0B
:100CE000084441B2301D2154A81CC5B2301D8542B4
:100CF000E1DB701DC1B2204604F06AFC04F07EFC0A
:100D000007B0BDE8F08F0000D80200200C030020DF
:100D100040030020A803002074030020DC0300200F
:100D200000007A44C0020020A8020020A006002093
:100D3000C8000020B40200200000C8421C000020AF
:100D4000EC0000202DE9F8438548007820B1012807
:100D500006D002286FD122E0012081490870FCE012
:100D60000220FFF757FE052005F048F90120FFF7A4
:100D700051FE052005F042F90320FFF74BFE052048
:100D800005F03CF90620FFF745FE052005F036F991
:100D90007448007810B1022071490870DDE0714894
:100DA000007810B901206E4908706E480078C0F3D1
:100DB0008010B8B11020FFF72DFE012005F01EF9BC
:100DC0001120FFF727FE012005F018F91220FFF788
:100DD00021FE012005F012F96248007820F0400061
:100DE000604908705F48007800F03F0000287DD01F
:100DF0000025002600275B48007800F0010050B174
:100E0000594D5A4E5A4F5B4C5648007820F001001D
:100E10005449087011E053480078C0F3400058B1BD
:100E2000554D564E564F574C4E48007820F0020014
:100E30004C49087001E08FE08FE065B320788DF8B1
:100E4000010060788DF80000BDF80000FFF754FB4A
:100E500080464D49FFF7F0F92861A0788DF8010030
:100E6000E0788DF80000BDF80000FFF745FB8046F4
:100E70004549FFF7E1F9686120798DF80100607953
:100E80008DF80000BDF80000FFF736FB80463E49B4
:100E9000FFF7D2F9A86156B3A0798DF80100E07987
:100EA0008DF80000BDF80000FFF726FB80463649AC
:100EB000FFF7C2F93061207A8DF80100607A8DF871
:100EC0000000BDF80000FFF717FB80462E49FFF732
:100ED000B3F97061A07A8DF80100E07A8DF8000016
:100EE000BDF80000FFF708FB804601E033E003E0B7
:100EF0002549FFF7A1F9B06167B3207B8DF80100A8
:100F0000607B8DF80000BDF80000FFF7F5FA804621
:100F10001D49FFF791F93861A07B8DF80100E07B56
:100F20008DF80000BDF80000FFF7E6FA804616498C
:100F3000FFF782F97861207C8DF80100607C8DF8E4
:100F40000000BDF80000FFF7D7FA80460E49FFF712
:100F500073F9B86100BF00E000BF00BFBDE8F883CF
:100F6000EF000020EE000020D80200200C0300203B
:100F700040030020B0060020A803002074030020D6
:100F8000DC030020C206002000007A4400BFFEE718
:100F90000146CAB20B1243EA0220704710B5002482
:100FA00073E147F6FF70BF490860BF48008800F052
:100FB0000F00BE4908700846007800287ED1B94865
:100FC0004438006800F44050B9490880B5484438B6
:100FD000006800F03000B7490880B2494439096818
:100FE0004BF68F7201EA020080F40050AD4944399B
:100FF0000860096848F6BF7201EA020080F020002C
:10100000A84944390860A848008800F0100000286A
:1010100038D10846006848F60F710840A1494439A4
:10102000086002F099F89F49443909684BF68F72BD
:1010300001EA02009E49098801F4805109B180F457
:1010400080509B49098801F4005109B180F4005097
:10105000944944390860096848F6BF7201EA020001
:101060009449097801F0100109B180F0100091490C
:10107000097801F0200109B180F020008949443944
:10108000086010BD87484438006884B204F08000CE
:10109000D8B384484438006848F60F710840814945
:1010A0004439086002F058F87E49443909684BF623
:1010B0008F7201EA02007E49098800E0A6E001F48F
:1010C000805109B180F480507949098801F40051B8
:1010D00009B180F40050734944390860096848F642
:1010E000BF7201EA02007349097801F0100109B1E9
:1010F00080F010006F49097801F0200109B180F0FB
:101100002000684944390860BBE7FFE704F4006049
:10111000D8B3644844380068C0F30E0048F68F71B5
:10112000084060494439086003F04AFA5D4944398F
:1011300009684BF68F7201EA02005D49098801F4E3
:10114000805109B180F480505949098801F4005157
:1011500009B180F40050534944390860096848F6E1
:10116000BF7201EA02005349097801F0100109B188
:1011700080F010004F49097801F0200109B180F09A
:1011800020004849443908607BE7FFE704F4004049
:1011900000287AD0434844380068C0F30E0048F66F
:1011A0008F7108403F494439086002F037FC3D49DF
:1011B000443909684BF68F7201EA02003C490988FC
:1011C00001F4805109B180F480503949098801F453
:1011D000005109B180F4005032494439086009686F
:1011E00048F6BF7201EA02003249097801F01001A5
:1011F00009B180F010002F49097801F0200109B1F0
:1012000080F020002749443908603AE727480078F1
:10121000294901EB8000D0F8000C84B204F40040AE
:10122000C0B12248007801EB8000D0F8000CC0F378
:101230000E0048F68F7108401C4909781E4A02EBDF
:101240008101C1F8000C19490978491E1B4A52F85E
:101250002100804704F08000B8B114480078164996
:1012600001EB8000D0F8000C48F60F7108400F49E0
:101270000978114A02EB8101C1F8000C0B49097889
:10128000491E0F4A52F8210080470648006880B284
:101290000549088000F4004000287FF482AE00BFBA
:1012A000EFE60000445C0040C401002090010020F3
:1012B000A4010020A601002000500040E40100200D
:1012C000C80100200B4A02EB8001D1F8001C01F498
:1012D000804169B102EB8001D1F8001C48F68F72A1
:1012E000114041F48041034B03EB8002C2F8001C23
:1012F00070470000005000400B4A02EB8001D1F81B
:10130000001C01F0400169B102EB8001D1F8001C22
:1013100048F68F72114041F04001034B03EB80020D
:10132000C2F8001C7047000000500040064A02EB63
:101330008001D1F8001C48F68F621140024B03EB8C
:101340008002C2F8001C70470050004070B504468F
:101350000025062C18D118480068007800F07F009E
:10136000012811D114480068407968B91248006812
:101370008078222801D1114D10E00F480068807854
:1013800021280BD10E4D09E00B480068007800F0D1
:101390007F00212802D1032C00D10A4D0DB9022073
:1013A00070BD0548006885610021034800684182DE
:1013B0000020A8470020F3E7940100202114000832
:1013C000F11300080514000810B504460249204630
:1013D00003F012FA10BD00006402002010B50446AC
:1013E0000249204603F008FA10BD00005C0200200C
:1013F00010B504460249204603F0FEF910BD000076
:1014000074020020014629B90120034A12681082A3
:10141000002070470148FCE79401002000020020F2
:1014200010B504460249204603F0E6F910BD00005D
:101430006C02002070B5054606480068C478042C8C
:1014400001DD002070BD044800EBC401284603F014
:10145000D3F9F7E7940100207C020020024600291E
:1014600001DD02207047002A01DD0220FAE700209A
:10147000F8E7000000B5024606480068007800F072
:101480007F00212804D10B2A02D100F077F800BD9B
:101490000220FCE79401002010B500202A490968C9
:1014A000887229490968C8722848C079264909689C
:1014B0004872002002F00CFF4FF40071002002F08F
:1014C000EFFF1021002002F0B9FF1821002002F0E8
:1014D0002DFF5821002002F093FF0020FFF726FF88
:1014E0001B4890F82C10002002F032FF002002F080
:1014F00071FF4FF4C061012002F0D2FF982101205A
:1015000002F014FF4021012002F022FF4FF440516D
:10151000012002F043FF4FF4C061022002F0C0FF3F
:101520004FF48C71022002F06BFF4021022002F088
:1015300077FF2021022002F081FF01200549086089
:10154000002002F0CDFE10BD94010020DA690008F1
:10155000080200209C02002003480068807A10B135
:101560000520024908607047940100209C02002079
:1015700004200149086070479C020020034800686D
:10158000C1780348016000207047000094010020EA
:10159000000200207047704710B501F00BF90020E1
:1015A0000A490968887202F029FB0020084908608E
:1015B0004FF43F4007490880084600880449091F46
:1015C000086000200449086010BD0000940100205C
:1015D000445C00409E0100209C0200202DE9F04761
:1015E0002848006800F110052E8826480068077A10
:1015F000D6B9042F18D12448007801280FD1002132
:101600002248006880B2801C214A42F81010302025
:101610002049088000BF00201B49087003E007270D
:1016200010201C49088027E0AC88A64201D804207D
:1016300000E002200746B44200D93446A0B2A968AF
:1016400088478046002001F07DF88146A2B24946D5
:10165000404604F0BBF8A1B2002002F0E1FE288869
:10166000001B288068882044688030200949088051
:1016700000020949088000BF024909680F72BDE8ED
:10168000F0870000940100208E010020505C004093
:1016900000600040A6010020A40100202DE9F041D7
:1016A0002848006800F110042688A068C0B1BEB1C7
:1016B000A588B54200D93546A8B2A1688847074633
:1016C0002088401B2080608828446080002001F032
:1016D00029F88046AAB24146384602F0C7F900BF51
:1016E000208850B14FF44050174908800021084627
:1016F00002F096FE3020154908802088A188884293
:1017000004DB03200F490968087218E020880028CC
:1017100004DD05200B490968087210E0208870B9C3
:10172000062008490968087200210948006880B24B
:10173000801C084A42F81010302004490880BDE897
:10174000F081000094010020A4010020A6010020E7
:10175000505C0040006000402DE9F84F9B48006855
:1017600045780027BA46062D1BD1984800680078B6
:1017700000F07F00002813D1944909688878012877
:1017800003D193490968CF690AE0022803D190493F
:1017900009680F6A04E0032802D18D4909684F6A7D
:1017A00094E0002D64D189480068408800285FD10A
:1017B00086480068C08802285AD1844800680079A9
:1017C000002855D181480068007800F07F0028B9D2
:1017D0007E480068808808B97E4F77E07B480068C3
:1017E000007800F07F00012810D178490968487915
:1017F000774909688A6900219047002866D17348B3
:101800000068807A002861D0724F5FE06F480068FE
:10181000007800F07F00022858D16C4800684079B9
:1018200000F00F0669480068407900F070096748C9
:101830000068407900F0800038B1674901EB86000C
:10184000D0F8000C00F0300806E0634901EB860098
:10185000D0F8000C00F4405860480078B04235D908
:10186000B9F1000F32D1B8F1000F2FD0594F2DE050
:10187000082D07D155480068007800F07F0028BB8C
:10188000574F23E00A2D21D150480068007800F01E
:101890007F0001281AD14D480068807AB0B14B48CA
:1018A0000068408890B949480068007970B9474895
:1018B0000068C088012809D1444909684879444929
:1018C00009688A690021904700B9464F57B13F48DF
:1018D0000068A0F812A03D48006887610020B84762
:1018E00000240FE0394A12685078394A12681169A9
:1018F00088470446032C05D1092034490968087239
:10190000BDE8F88F31480068008A4FF6FF718842C1
:1019100004D109202D4909680872F1E7022C03D08F
:101920002A480068008A20B90820284909680872F6
:10193000E6E726480068007800F08000E0B323481E
:101940000068C088009021480068008A0099884299
:1019500004D91E4900980968088223E01B480068E2
:10196000008A1A490968C98888421BDA1748006842
:10197000008A1749096891F82C10884203DA002080
:10198000194908700EE011480068008A104909687A
:1019900091F82C1090FBF1F201FB120010B901201C
:1019A000114908700A48006890F82C100748006830
:1019B0008182FFF713FE07E0FFE703200349096870
:1019C000087200030949088000BF99E794010020CC
:1019D00098010020494800080050004004020020FF
:1019E000CD4700081D4800088E010020A4010020FA
:1019F0007047000010B540229821054802F036F8E3
:101A00000120044908704FF4405102F0C7FC10BD9A
:101A1000480500203A000020002004E00021034A8D
:101A20001154411CC8B24028F8DB70473007002031
:101A300003200149086070479C020020094A0A4BB4
:101A40001A6009E0084A126812880280801C064A5F
:101A50001268921C044B1A600A00A1F10103D9B26A
:101A6000F0D17047007C00084400002070B50446A7
:101A70005A480078012806D00B280DD01F2819D00D
:101A8000FF287CD193E05648007800F0010010B1A7
:101A90000B205249087096E00621524804F0F4FCED
:101AA0000020514948620860504988601F204B4916
:101AB000087088E04D4948684D49FEF77BFD11D319
:101AC0004A4948684B49FEF77FFD0BD347490868F0
:101AD0004749FEF76FFD05D3444908684549FEF7BD
:101AE00073FD0AD244488088B0F5966F05DD3C4806
:101AF000007820F001003A4908704049B1F9060029
:101B0000FEF7F1FC05463E4801682846FEF762FBF9
:101B10003C4948623949B1F90800FEF7E4FC054642
:101B2000374801682846FEF755FB37494862334974
:101B3000B1F90A00FEF7D7FC05463148016828468E
:101B4000FEF748FB314948622848406830494862FE
:101B5000264800682F494862244880682249486224
:101B600021462C4804F0A9FC2A48806A25490860CF
:101B70002146244804F0A1FC2146254800E01EE04F
:101B800004F09BFC2248806A1F49086021461E48D9
:101B900004F093FC2146144804F08FFC1248806A3C
:101BA0001A4908602146194804F087FC0BE0062119
:101BB0000C4804F069FC01200849087003E0FF208C
:101BC0000649087000BF00BF0548007800F001001A
:101BD00010B9FF200149087070BD000056010020B7
:101BE0001C00002004010020DC030020B4020020BF
:101BF000000048C200004842C0020020A8020020A5
:101C0000BC690008D80200200C030020400300201B
:101C100074030020A803002010B50446884800780B
:101C200000F0010010B9FF2086490870854800784F
:101C3000012806D002280DD01F281FD0FF287DD1F3
:101C4000EFE07F48007800F0010010B102207D49EC
:101C50000870F2E07A480078C0F3001068B17A4862
:101C60000068C82809D90421784804F00DFC1F2019
:101C700074490870012076490870DEE075480088D4
:101C800040F2D661884211DC7248008840F2E2419D
:101C900088420BDB6F48408840F2D661884205DC01
:101CA0006C48408840F2E241884229DA01206849C4
:101CB00008706848008840F2D661884203DD6648B3
:101CC0006649086008E06348008840F2E2418842C3
:101CD00002DA6348614908605E48408840F2D66194
:101CE000884203DD5E485F49086052E059484088F9
:101CF00040F2E24188424CDA57485A49086048E0CD
:101D00005348007801280AD10020514908705648EC
:101D100000685649086056480068564908605248AD
:101D20000068524948622146504804F0C6FB5048BA
:101D300000685049486221464E4800E079E004F0CE
:101D4000BCFB4A49886A4C49FEF734FC01D24A4838
:101D500009E04649886A4949FEF736FC01D24748FE
:101D600001E04248806A3D4908604249886A424928
:101D7000FEF720FC01D2404809E03E49886A3F490D
:101D8000FEF722FC01D23D4801E03A48806A35491D
:101D900008603B4800683149486221462F4804F0FA
:101DA0008CFB384800682F49486221462D4804F0D2
:101DB00084FB2A49886A2849FEF7FCFB01D22648A1
:101DC00009E02649886A2649FEF7FEFB01D224482D
:101DD00001E02248806A2C4908602249886A1E492D
:101DE000FEF7E8FB01D21C4809E01E49886A1C493D
:101DF000FEF7EAFB01D21A4801E01A48806A80F037
:101E00000040224908600E480078C0F3001020B15D
:101E10000B480078C0F3400010B9FF200949087052
:101E20000BE00421094804F02FFB0120054908704C
:101E300003E001200349087000BF00BF10BD00008F
:101E40001C00002054010020480100202401002033
:101E500055010020C0020020000070C1E0040020F5
:101E60000000704114050020C40000207804002008
:101E7000C8000020AC0400200000A0C10000A04168
:101E8000B4000020B8000020A80300207403002044
:101E90002DE9F04102460025002600200023002401
:101EA000002791F803C00CF00F0591F803C00CF067
:101EB000100CBCF1000F03D091F802C04CEA0505EC
:101EC00091F800C0BCF1000F31D0146800202BE065
:101ED0004FF0010C0CFA00F3B1F800C00CEA030655
:101EE0009E4220D183004FF00F0C0CFA03F7BC4345
:101EF00005FA03FC4CEA040491F803C0BCF1280F76
:101F000006D14FF0010C0CFA00FCC2F814C00AE034
:101F100091F803C0BCF1480F05D14FF0010C0CFA49
:101F200000FCC2F810C0401C0828D1D31460B1F8DE
:101F300000C0BCF1FF0F34DD546800202EE000F13A
:101F4000080C4FF0010808FA0CF3B1F800C00CEAD5
:101F500003069E4221D183004FF00F0C0CFA03F7C9
:101F6000BC4305FA03FC4CEA040491F803C0BCF13D
:101F7000280F05D100F1080C08FA0CF8C2F81480FB
:101F800091F803C0BCF1480F07D100F1080C4FF0E5
:101F9000010808FA0CF8C2F81080401C0828CED3BB
:101FA0005460BDE8F08141617047016170470000F5
:101FB00007B59EB04FF07C512098FEF70BF90C90BE
:101FC000FE4880680890FD48006807900899FEF771
:101FD00001F90A90F948C0680890F84840680790ED
:101FE0000899FEF7F7F809900A99FEF7EDF84FF017
:101FF00080410B90FEF7EEF81B90F048C068089007
:10200000EE48806807900899FEF7E4F80A90EB48DC
:1020100040680890E948006807900899FEF7DAF8E8
:1020200009900A99FEF77EF84FF080410B90FEF779
:10203000D1F81C90E14880680790E04880680690DD
:102040000799FEF7C7F80990DC4840680790DB481D
:10205000406806900799FEF7BDF808900999FEF7C9
:1020600061F84FF080410A90FEF7B4F84FF07E51CE
:102070000B90FEF7ACF81D90D148B0F90400069023
:10208000FEF731FA0890CE48B0F904000690FEF74A
:102090002AFA07900899FEF79DF80A90C848B0F907
:1020A00002000490FEF71FFA0690C548B0F902003E
:1020B0000490FEF718FA05900699FEF78BF8089041
:1020C000BF48B0F900000490FEF70DFA0690BC4836
:1020D000B0F900000490FEF706FA05900699FEF7A5
:1020E00079F807900899FEF71DF809900A99FEF70C
:1020F00019F80B9001F0A2FD0D901E98B0F90000A8
:102100000A90FEF7F0F90B900D99FEF763F818901E
:102110001E98B0F902000A90FEF7E5F90B900D99B0
:10212000FEF758F819901E98B0F904000A90FEF7CF
:10213000DAF90B900D99FEF74DF81A901C9809905A
:102140001A9808900999FEF745F80B901D98099088
:10215000199808900999FEF73DF80A900B99FEF737
:1021600033F812901D980990189808900999FEF775
:1021700031F80B901B9809901A9808900999FEF76E
:1021800029F80A900B99FEF71FF813901B980990F5
:10219000199808900999FEF71DF80B901C98099062
:1021A000189808900999FEF715F80A900B99FEF710
:1021B0000BF8149012980A90824801680A98FEF76A
:1021C00009F80B908048006801460A900B98FDF7CB
:1021D000A9FF7D49086013980A907A4801680A9817
:1021E000FDF7F8FF0B907848406801460A900B987D
:1021F000FDF798FF7449486014980A907148016887
:102200000A98FDF7E7FF0B906F48806801460A9037
:102210000B98FDF787FF6C4988601298014608907B
:102220006A480068FDF7D6FF0A901E98B0F90600CC
:102230000790FEF758F90890654801680898FDF77F
:10224000C9FF09900A99FDF76DFF0B905E48006881
:1022500001460A900B98FDF765FF1590139801460B
:1022600008905A480068FDF7B5FF0A901E98B0F92B
:1022700008000790FEF737F908905548016808985C
:10228000FDF7A8FF09900A99FDF74CFF0B904E4807
:10229000406801460A900B98FDF744FF1690149889
:1022A0000146089049480068FDF794FF0A901E987F
:1022B000B0F90A000790FEF716F908904448016843
:1022C0000898FDF787FF09900A99FDF72BFF0B90FF
:1022D0003D48806801460A900B98FDF723FF179050
:1022E000179808903548C06807900899FDF772FF65
:1022F0000A90169806903148806805900699FDF777
:1023000069FF08902D48406880F0004006901598BD
:10231000014605900698FDF75DFF07900899FDF7C7
:1023200053FF09900A99FDF74FFF0B900C99FDF7A9
:1023300051FF1190179808902048806807900899DD
:10234000FDF748FF0A90169806901C48C068059053
:102350000699FDF73FFF089015980690174800680A
:1023600005900699FDF736FF07900899FDF72CFFB9
:1023700009900A99FDF7D6FE0B900C99FDF72AFFFC
:102380001090179808900D48406807900899FDF73D
:1023900021FF0A9016980690084800680590069953
:1023A000FDF718FF0890159806900448C06805903E
:1023B0000699FDF70FFF079008990BE064010020D4
:1023C000A802002060010020080700205C01002016
:1023D000C0690008FDF7A6FE09900A99FDF7F4FE12
:1023E0000B900C99FDF7F6FE0F9017980890C748D0
:1023F000006807900899FDF7EDFE0A901698069080
:10240000C248406805900699FDF7E4FE0890BF4871
:10241000806880F000400690159801460590069867
:10242000FDF7D8FE07900899FDF77CFE09900A9900
:10243000FDF778FE0B900C99FDF7CCFE0E90B3489B
:1024400000680B901199FDF76DFEB04908600846D1
:1024500040680B901099FDF765FEAC49486008464E
:1024600080680B900F99FDF75DFEA84988600846CB
:10247000C0680B900E99FDF755FEA449C860084648
:10248000C06808900846C06807900899FDF7A2FE4A
:102490000A909E48806806909C488068059006993E
:1024A000FDF798FE08909948406804909748406866
:1024B00003900499FDF78EFE0690944800680490FE
:1024C0009248006803900499FDF784FE05900699F0
:1024D000FDF728FE07900899FDF724FE09900A9958
:1024E000FDF720FE0B9001F0A9FB0D9087480068D6
:1024F0000B900D99FDF76EFE844908600846406810
:102500000B900D99FDF766FE80494860084680688B
:102510000B900D99FDF75EFE7C4988600846C06807
:102520000B900D99FDF756FE7849C8600846006883
:10253000014604904FF08040FDF74CFE0590734833
:102540008068014604900598FDF744FE07906F48A7
:102550004068014604904FF08040FDF73BFE059037
:102560006A48C068014604900598FDF733FE06905E
:102570000799FDF729FE0B90644800680146049016
:102580004FF08040FDF726FE059060484068014608
:1025900004900598FDF71EFE07905C488068014690
:1025A00004904FF08040FDF715FE05905748C06835
:1025B000014604900598FDF70DFE06900799FDF77A
:1025C000B1FD0A9051488068014604904FF0804068
:1025D000FDF700FE05904D4880680146049005987F
:1025E000FDF7F8FD079049484068014603904FF019
:1025F0008040FDF7EFFD0490444840680146039099
:102600000498FDF7E7FD4FF07E510590FDF7DFFDE3
:1026100006900799FDF7D8FD09901E98B0F90A00B9
:102620000690FDF760FF0790394801680798FDF7AD
:10263000D1FD089037490898FDF7C6FF04D3364905
:102640000898FDF7B7FF0DD220990898FDF7C2FD55
:1026500007901F988068014606900798FDF762FD75
:102660001F9988602D480068FDF775FFCDE90401CA
:102670000B98FDF770FFCDE9000103F029FA81F016
:102680000041CDE90201DDE90423FDF7BAFECDE901
:102690000601FDF773FF1F994860DDE9091003F09B
:1026A0004FFB07901D4801680798FDF793FD1F99A0
:1026B00008601E98B0F904000490FDF714FF05901F
:1026C0000999FDF787FD07901E98B0F90200029066
:1026D000FDF709FF03900A99FDF77CFD05901E9810
:1026E000B0F900000290FDF7FEFE03900B99FDF794
:1026F00071FD04900599FDF715FD06900799FDF70A
:1027000011FD0749086021B000BD000064010020F0
:10271000BC690008CDCC4C3FCDCC4CBFB46900089F
:102720005801002001460548006880B200EBC10056
:10273000001D034A32F8100080B27047505C004020
:102740000060004001460548006880B200EBC1000F
:10275000034A32F8100080B270470000505C00401D
:102760000060004010B506480168064803F024FEEA
:1027700004488068024908600846006810BD0000EF
:1027800058010020740100204FF0E02080690749C3
:10279000081A4821B0FBF1F00549096801EB410234
:1027A000C2EBC11100EBC1007047000040190100ED
:1027B0001800002010B50F4B18681B1D19681B1D51
:1027C0001A68A8B10C4CA070030A2371030CA37102
:1027D000030E2372A1720B0A23730B0CA3730B0E4F
:1027E0002374A274130A2375130CA375130E237696
:1027F00010BD0000E8F7FF1FA801002000BFFEE7A2
:102800002DE9F05F0446FFF7ADFF0746FDF78AFEAE
:1028100005B2A348007800F0010008B9A14805807E
:10282000A0480088281A06B29F48006840F6AC51BC
:10283000884265D29C480068FDF75EFE80469B4852
:1028400001684046FDF7C0FC07469949FDF7BCFE0C
:1028500007D2974995480068FDF764FC93490860E2
:102860001CE091480068FDF747FE80468F480168EC
:102870004046FDF7A9FC07468E49FDF79BFE07D2AF
:102880008B498A480068FDF79FFC8849086005E08D
:1028900085480068FDF730FE844908608648016875
:1028A00082480068FDF790FC82468449FDF792FC5F
:1028B00081462146FDF7C0FC07463046FDF713FE72
:1028C00083462146FDF786FC82467D4801685046D6
:1028D000FDF728FC81467B49FDF77CFC80463946A4
:1028E000FDF720FC784908600846006874490860D4
:1028F000764948626D4800686F49086074494862CB
:102900006748007800F0010010B9FF207149087095
:1029100070480078012806D002281FD01F2830D028
:10292000FF287DD1ADE05E48007800F00100A0B145
:10293000002066494862644908606149086063494B
:1029400048625A4800685C49086061494862022050
:10295000604908700020604908709EE05048007887
:10296000C0F3400060B100205C49087004205C495D
:1029700088704FF4FA705B4908801F205549087031
:102980008BE05948808840F2D661884218DA564870
:10299000808840F27E41884212DD5048007830B98C
:1029A00001204E4908704A48406A4949086021465A
:1029B000474803F082FD4648806A4449086029E0A0
:1029C0004948808840F2D66188420BDD364800686D
:1029D000490088421ED200204049087043483B49C4
:1029E000086017E04048808840F27E41884211DA52
:1029F00000203A4908703E48344908603449486A22
:102A00003C49FDF7D7FD05D22548007820F00100AC
:102A10002349087021462D4803F04FFD204800E06F
:102A200037E00078C0F3400028B900202C498870B6
:102A3000FF20284908701C480068C82805D31A4898
:102A4000006840F67461884217D923480078401C1A
:102A50002149087008460078322811DD10480078B6
:102A600020F002000E4908700846007820F010009F
:102A70000870FF201749087002E00020164908700E
:102A80000BE002211C4803F0FFFC012011490870F3
:102A900003E001200F49087000BF00BFBDE8F09FB0
:102AA0001C000020520100204801002034010020B9
:102AB00000004842000048C2400100208FC2753C1F
:102AC00044010020F6287C3F38010020100400203B
:102AD00044040020500100204C0100204D01002042
:102AE000500000203C010020C002002000007A437A
:102AF0000000AFC3000020411C01002008B54020A9
:102B0000304908600120009004E09DF80000401E5C
:102B1000C0B200909DF800000028F6D1802029491D
:102B200008600120009004E09DF80000401EC0B243
:102B300000909DF800000028F6D140202149091F8F
:102B400008600120009004E09DF80000401EC0B223
:102B500000909DF800000028F6D10120009004E0CC
:102B60009DF80000401EC0B200909DF800000028B3
:102B7000F6D10120009004E09DF80000401EC0B294
:102B800000909DF800000028F6D10120009004E09C
:102B90009DF80000401EC0B200909DF80000002883
:102BA000F6D14020074908600120009004E09DF81C
:102BB0000000401EC0B200909DF800000028F6D131
:102BC00008BD0000140C014008B5402030490860E1
:102BD0000120009004E09DF80000401EC0B200906B
:102BE0009DF800000028F6D180202949091F0860BF
:102BF0000120009004E09DF80000401EC0B200904B
:102C00009DF800000028F6D140202149091F0860E6
:102C10000120009004E09DF80000401EC0B200902A
:102C20009DF800000028F6D10120009004E09DF8F6
:102C30000000401EC0B200909DF800000028F6D1B0
:102C40000120009004E09DF80000401EC0B20090FA
:102C50009DF800000028F6D10120009004E09DF8C6
:102C60000000401EC0B200909DF800000028F6D180
:102C70004020074908600120009004E09DF8000012
:102C8000401EC0B200909DF800000028F6D108BD9B
:102C9000140C014008B50821002080222C4B1A603A
:102CA0004CE04206100E4022294B1B1D1A600122E7
:102CB000009204E09DF80020521ED2B200929DF8CE
:102CC0000020002AF6D10122009204E09DF80020A5
:102CD000521ED2B200929DF80020002AF6D1402266
:102CE0001B4B1A600122009204E09DF80020521E46
:102CF000D2B200929DF80020002AF6D10122009263
:102D000004E09DF80020521ED2B200929DF80020EF
:102D1000002AF6D10122009204E09DF80020521E04
:102D2000D2B200929DF80020002AF6D1084A083A53
:102D3000126802F080020AB140F001000A00A1F11D
:102D40000103D9B2ADD14022014B1B1D1A6008BD51
:102D5000100C014008B5082150E040222C4B1A60AD
:102D60000122009204E09DF80020521ED2B200928F
:102D70009DF80020002AF6D100F0800222B18022C6
:102D8000234B1B1F1A6002E08022214B1A6042066F
:102D9000100E0122009204E09DF80020521ED2B2D3
:102DA00000929DF80020002AF6D14022184B1B1FEC
:102DB0001A600122009204E09DF80020521ED2B257
:102DC00000929DF80020002AF6D10122009204E032
:102DD0009DF80020521ED2B200929DF80020002AD9
:102DE000F6D10122009204E09DF80020521ED2B2DA
:102DF00000929DF80020002AF6D100BF0A00A1F140
:102E00000103D9B2A9D14022014B1A6008BD0000CC
:102E1000140C014008B58020224908604020086059
:102E20000120009004E09DF80000401EC0B2009018
:102E30009DF800000028F6D11A480838006808B943
:102E4000012000E0002000F0800008B1012008BD52
:102E500080201449091D08600120009004E09DF8BD
:102E60000000401EC0B200909DF800000028F6D17E
:102E70000C480838006800F0800008B10120E6E73F
:102E800040200849091D08600120009004E09DF8D9
:102E90000000401EC0B200909DF800000028F6D14E
:102EA00000BFD4E7100C014008B540202449086059
:102EB0000120009004E09DF80000401EC0B2009088
:102EC0009DF800000028F6D180201D4908600120EF
:102ED000009004E09DF80000401EC0B200909DF8F4
:102EE00000000028F6D10120009004E09DF80000C9
:102EF000401EC0B200909DF800000028F6D140208E
:102F00000F49091F08600120009004E09DF80000AF
:102F1000401EC0B200909DF800000028F6D180202D
:102F20000749091F08600120009004E09DF8000097
:102F3000401EC0B200909DF800000028F6D108BDE8
:102F4000140C014008B540202A4908600120009077
:102F500004E09DF80000401EC0B200909DF8000003
:102F60000028F6D180202349091F08600120009025
:102F700004E09DF80000401EC0B200909DF80000E3
:102F80000028F6D140201B49091F0860012000904D
:102F900004E09DF80000401EC0B200909DF80000C3
:102FA0000028F6D10120009004E09DF80000401EAA
:102FB000C0B200909DF800000028F6D101200090DA
:102FC00004E09DF80000401EC0B200909DF8000093
:102FD0000028F6D107480C38006800F0800020B1C6
:102FE000402004490860012008BD402001490860D4
:102FF0000020F9E7140C014008B50121082000F079
:1030000055FEC020ADF8000003208DF8020014200A
:103010008DF8030069460248FEF73AFF08BD00003C
:10302000000C014070B504460D460026FFF7F2FE85
:10303000012800D170BD2046FFF78CFEFFF782FF0C
:10304000012803D1FFF730FF0120F3E72846FFF7FF
:1030500081FEFFF777FFFFF727FFFFF7DBFE611C1D
:10306000C8B2FFF777FEFFF76DFF012803D1FFF726
:103070001BFF0120DEE7FFF70DFE0646FFF7A4FD6C
:10308000FFF712FF70B2D5E770B506460C4615463D
:10309000FFF7C0FE012800D170BD3046FFF75AFE91
:1030A000FFF750FF012803D1FFF7FEFE0120F3E7F1
:1030B0002046FFF74FFEFFF745FF2846FFF74AFE81
:1030C000FFF740FFFFF7F0FE0020E5E72DE9F041B4
:1030D00007460E4615461C46FFF79CFE012801D107
:1030E000BDE8F0813846FFF735FEFFF72BFF0128DA
:1030F00003D1FFF7D9FE0120F2E73046FFF72AFEA1
:10310000FFF720FF012803D1FFF7CEFE0120E7E7FC
:10311000FFF7CAFEFFF77EFE791CC8B2FFF71AFE62
:10312000FFF710FF012803D1FFF7BEFE0120D7E70C
:103130000CE0FFF7AFFD2870012C02D1FFF744FD32
:1031400001E0FFF7DBFC6D1C601EC4B2002CF0D167
:10315000FFF7AAFE0020C3E710B518480068047AFC
:10316000022C01D0042C05D1FEF738FA1348006870
:10317000047A1CE0062C19D1104800684078052814
:103180000ED10E480068007800F07F0040B90B496E
:103190000968C87801F0A4F809490968086A8047F5
:1031A0000849096888688047082400E00824034922
:1031B00009680C7200F0FEFC10BD000094010020B4
:1031C000A0010020980100200548817A19B105214D
:1031D000044A116002E00121024A116070470000B8
:1031E000140700209C02002000BFFEE72DE9F047F5
:1031F000B148007800F0010010B9FF20AF49087015
:10320000AE480078012806D0022813D01F281BD012
:10321000FF287DD1EAE00020A949C8808880488045
:103220000880A548007800F0010010B10220A349F1
:10323000087000BFA348808840F24C41884202DDFC
:103240001F209E490870DCE09B480078C0F34000D6
:1032500070B19D480088FDF74FF906469B48816A8A
:103260003046FCF75FFF0546FDF75CF904B234E039
:1032700094488088A0F57A7005B22846FDF733F9A6
:1032800080469349FCF7A6FF07469249FCF74AFFA0
:103290000646FDF747F904B28B490C800A2D18DA6F
:1032A0008D480088401C8C49088008460088B0F58D
:1032B000967F11DD00240621884803F0E5F8002000
:1032C0007F49C88088804880088002207B49087038
:1032D00097E000208049088000BF002C01DA002020
:1032E00006E0B4F5487F02DD4FF4487000E0204668
:1032F0007349C880888048800880794A916A794AF1
:10330000906AFCF70FFF80467748816A404600E0EC
:1033100076E0FCF707FF06466949B1F90000FDF7C2
:10332000E2F807463146FCF7FDFE0546FDF7FAF8E0
:1033300000B2634908806A4A916A6A4A906AFCF757
:1033400043FF80466848816A4046FCF73DFF0646D9
:103350005B49B1F90200FDF7C6F807463146FCF7B4
:10336000E1FE0546FDF7DEF800B2554948805D48AC
:10337000806A80F000485A48816A4046FCF7D2FED5
:1033800007465948816A3846FCF71EFF06464C49F5
:10339000B1F90400FDF7A7F881463146FCF7C2FEFB
:1033A0000546FDF7BFF800B2454988804D48806A60
:1033B00080F000484A48816A4046FCF705FF07460E
:1033C0004948816A3846FCF7ADFE06463C49B1F9EA
:1033D0000600FDF788F881463146FCF7A3FE054656
:1033E000FDF7A0F800B23649C8800AE00020344951
:1033F000C88088804880088001203049087000E03B
:1034000000BF00BF2E48B0F90000002801DA0020FC
:103410000BE02B48B0F90000B0F57A7F02DD4FF4E5
:103420007A7002E02648B0F900004FF080418886AB
:103430002348B0F90200002801DA00200BE0204800
:10344000B0F90200B0F57A7F02DD4FF47A7002E045
:103450001B48B0F902004FF0804108871848B0F9C6
:103460000400002801DA00200BE01548B0F9040040
:10347000B0F57A7F02DD4FF47A7002E01048B0F9BF
:1034800004004FF0804188870D48B0F906000028FD
:1034900001DA00200BE00A48B0F90600B0F57A7FA7
:1034A00002DD4FF47A7002E00548B0F906000F49DA
:1034B0000880BDE8F08700001C00002057010020B4
:1034C0001E000020C00200203C010020100400204B
:1034D000CDCCCC3E000048434E010020040100202A
:1034E0000C030020D80200204003002040000040D0
:1034F0002DE9FE4F06236A463B21D020FFF7E6FD6B
:1035000006230DF106024321D020FFF7DFFD002442
:1035100058E0012000EB44001DF800001DF81410D5
:1035200040EA0120294931F81410401A00B2284914
:10353000096821F81400032C1BDA2549096831F9C0
:103540001400FCF7D0FF054604EB4401214A02EBCE
:10355000C100294602F030FF04EB44011D4A02EB92
:10356000C1018868FCF7DEFF00B21949096821F83B
:103570001400022C24DDE01EC5B2DFF85C80144983
:10358000096831F91400FCF7AEFF82464146FCF7AA
:1035900021FE0746114951F825001149FCF71AFE92
:1035A00081463946FCF7BEFD0C4941F82500064628
:1035B000FCF7B8FF00B20649096821F8140000BF03
:1035C000601CC4B2062CA4DBBDE8FE8F8806002078
:1035D000580000205C0000209A99193E94060020B3
:1035E0009A99593F10B5002400BF80226B21D0204A
:1035F000FFF74AFDC4B21E2002F000FD022219218D
:10360000D020FFF741FD2044C4B203226B21D0201B
:10361000FFF73AFD2044C4B203221A21D020FFF75D
:1036200033FD2044C4B218221B21D020FFF72CFD0B
:103630002044C4B209221C21D020FFF725FD2044DC
:10364000C4B2002CD1D17521D020FFF7EBFCC4B25D
:10365000682C01D0012010BD06210248FEF7EEF9CA
:103660000020F8E788060020704770471FB510A1BA
:1036700003C9CDE90201052202A9302000F0A4F817
:1036800005226946102000F04DF8002406E01DF8E0
:103690000400A52800D003E0601CC4B2052CF6DBB2
:1036A00000BF052C02D0012004B010BD0020FBE7B4
:1036B000A5A5A5A5A500000008B50121082000F0DA
:1036C000F5FA4FF48850ADF8000010208DF8030093
:1036D00003208DF8020069461048FEF7D9FB4FF42D
:1036E00080700E491031086000010860C010ADF80C
:1036F000000048208DF8030003208DF80200694681
:103700000748FEF7C5FB00F079FD4FF480700349D0
:10371000143108600001091F086008BD000C014059
:10372000000801402DE9F04107460D4616464FF4CA
:1037300080500C490860384600F096FD8046002411
:1037400005E0FF2000F090FD2855601CC4B2B44293
:10375000F7DB4FF480500349091F08604046BDE87D
:10376000F0810000140C014070B504464FF4805005
:1037700007490860204600F077FDFF2000F074FD47
:1037800005464FF480500249091F0860284670BD65
:10379000140C014070B504460720FFF7E5FF05460D
:1037A0002946272000F032F805F0400050B12022D1
:1037B00021466120FFF7B6FFFF21E22000F026F846
:1037C000002070BD0120FCE72DE9F04107460C46C2
:1037D00015464FF480500C490860384600F044FD0F
:1037E0008046002605E014F8010B00F03DFD701C3A
:1037F000C6B2AE42F7DB4FF480500349091F0860A0
:103800004046BDE8F0810000140C014070B505464B
:103810000C464FF4805008490860284600F024FD0B
:103820000646204600F020FD4FF480500249091F53
:103830000860304670BD0000140C014010B5FFF761
:103840003BFF00BF00F044FCFFF710FF0128F9D058
:1038500010BD000070B5002100230F22C47804B30E
:10386000154C246804F4E064C4F5E064210AC1F155
:103870000403CA40447804FA03F1847814402143D5
:1038800009010E4C0678A155047804F01F050124A7
:10389000AC4005786D11AD0005F1E025C5F800419B
:1038A00009E0047804F01F050124AC40044D0678BB
:1038B000761145F8264070BD0CED00E000E400E014
:1038C00080E100E002490143024A116070470000B4
:1038D0000000FA050CED00E070B502264A480068C9
:1038E000447849480068007800F07F0000284AD1F9
:1038F000092C03D101F020F8064665E0052C14D10F
:1039000041480068C0787F280BDC3F480068807819
:1039100038B93D480068808818B93B480068807A0B
:1039200008B108256BE000264EE0032C14D1364880
:103930000068C07801280DD133480068808848B9F4
:1039400031480068407A00F0200018B101F018F802
:10395000064639E0022637E0012C35D12A480068B6
:10396000C07801280DD128480068808848B92648C9
:103970000068407A00F0200018B100F079FE064699
:1039800022E0022620E020480068007800F07F0056
:10399000012805D10B2C17D101F066F8064613E07B
:1039A00019480068007800F07F0002280BD1012C34
:1039B00003D100F05DFE064606E0032C04D100F0C2
:1039C000F3FF064600E002264EB1E0B20F4A12684D
:1039D000516988470646032E01D109250FE00EB133
:1039E00008250CE0062500210948006880B2801CEB
:1039F000084A42F8101030200749088000BF0249E9
:103A000009680D7270BD000094010020980100202B
:103A1000505C004000600040A601002010B5114835
:103A20000068047A032C01D0052C05D1FDF736FE81
:103A30000C480068047A0EE0072C05D10A49096891
:103A4000C8688047082406E0022C01D0042C01D16C
:103A5000082400E00824034909680C7200F0AAF861
:103A600010BD00009401002098010020F0B5561C04
:103A70007510074E06EB41042B4605E034F8047B35
:103A800020F8017B401C5B1E002BF7D1F0BD00002D
:103A900000600040704700004148006841490968E3
:103AA000401A41490988884200D270473C48006862
:103AB0003C4908603D48007800F0010018B9022038
:103AC0003949887019E039480078C0F3001040B9CE
:103AD00036480078C0F3400018B900203249887099
:103AE0000BE032480078C0F3001018B101202E49D5
:103AF000887002E004202C4988702B48807850B3ED
:103B0000012804D002280DD0042842D12EE04FF421
:103B10007A7027490880091D0880091D0880091D41
:103B200008803AE02248008880F407702049088025
:103B3000081D008880F40770091D0880081D008892
:103B400080F40770091D0880081D008880F4077044
:103B5000091D088021E04FF4FA7015490880091DFD
:103B60000880091D0880091D088016E0104800889B
:103B700080F407700E490880081D008880F40770E3
:103B8000091D08804FF47A70091D0880091D0880FE
:103B900003E001200449887000BF00BF00BF84E734
:103BA0001800002054000020500000201C000020BD
:103BB0003404004010B50D4890F82C10002000F09F
:103BC000C7FB0B480068007A082805D14002094964
:103BD000088010200849088005480068007A0928F4
:103BE00001D1012010BD0020FCE7000008020020E8
:103BF00094010020A4010020A601002010B501209E
:103C000001F0F0FB01240B48046000200A49088001
:103C100008460088074908600020091D08604FF425
:103C2000E0500549088008460088024908600020E5
:103C300010BD0000405C00409E0100202DE9F05FB7
:103C400004464FF07F594FF07C512046FCF7C2FAF2
:103C5000824625462E460C48A0EB66063546294688
:103C60005046FCF7B7FA83462946FCF7B3FA80467C
:103C70004946FCF7ACFA07462946FCF7ABFA05467D
:103C80002846BDE8F09F0000DF59375F29B1064A9A
:103C9000D2690243044BDA6104E0034AD2698243E9
:103CA000014BDA61704700000010024029B1064A5A
:103CB00092690243044B9A6104E0034A9269824389
:103CC000014B9A61704700000010024030B500219E
:103CD0000022002400232D4D6D6805F00C0121B158
:103CE000042905D0082923D105E0294D056022E0EB
:103CF000274D05601FE0254D6D6805F47012234DBA
:103D00006D6805F48034022505EB92421CB9214D03
:103D1000554305600BE01D4D6D6805F400351DB180
:103D20001C4D5543056002E0194D5543056002E006
:103D3000174D056000BF00BF144D6D6805F0F00120
:103D40000909154D6B5C0568DD4045600F4D6D68D8
:103D500005F4E061090A104D6B5C4568DD40856043
:103D60000A4D6D6805F46051C90A0B4D6B5C4568DE
:103D7000DD40C560054D6D6805F44041890B074D78
:103D80006B5CC568B5FBF3F5056130BD0010024002
:103D900000127A0000093D002600002036000020B5
:103DA0000149086070470000D80042422DE9F04107
:103DB000BC48FFF7EFFC00287CD10025BA490880F9
:103DC000002405E0B748005D2844C5B2601CC4B2B9
:103DD0001F2CF7DBB348C07FA8426CD1B1480078F4
:103DE000AA28FAD1AF484078AF28F6D1AD4840793B
:103DF000AC49097940EA0120AC49088008460088AE
:103E0000B0F57A7F02DA4FF47A7009E0A7480088AB
:103E1000B0F5FA6F02DD4FF4FA6001E0A3480088C4
:103E2000A24908809F48C0799E49897940EA0120CB
:103E30009E49488008464088B0F57A7F02DA4FF400
:103E40007A7009E099484088B0F5FA6F02DD4FF4C6
:103E5000FA6001E095484088944948809148407A4A
:103E60009049097A40EA0120904988800846808874
:103E7000B0F57A7F02DA4FF47A7009E08B488088D7
:103E8000B0F5FA6F02DD4FF4FA6001E087488088F0
:103E9000864988808348C07A8249897A40EA01202D
:103EA0008249C8800846C088B0F57A7F04DA4FF4AA
:103EB0007A700BE0E0E0DEE07C48C088B0F5FA6F95
:103EC00002DD4FF4FA6001E07848C0887749C88085
:103ED0007448407B7349097B40EA0120734908819B
:103EE00008460089B0F57A7F02DA4FF47A7009E06B
:103EF0006E480089B0F5FA6F02DD4FF4FA6001E018
:103F00006A480089694908816648C07B6549897BA0
:103F100040EA01206549488108464089B0F57A7F2A
:103F200002DA4FF47A7009E060484089B0F5FA6F20
:103F300002DD4FF4FA6001E05C4840895B4948814A
:103F40005848407C5749097C40EA012057498881FC
:103F500008468089B0F57A7F02DA4FF47A7009E07A
:103F600052488089B0F5FA6F02DD4FF4FA6001E043
:103F70004E4880894D4988814A48C07C4949897C9E
:103F800040EA01204949C8810846C089B0F57A7FD6
:103F900002DA4FF47A7009E04448C089B0F57A6FCC
:103FA00002DD4FF47A6001E04048C0893F49C88192
:103FB000084600893E490988884213D03B48008959
:103FC0003B4908803B4800780009C04339490978DB
:103FD00060F30411374801700909007861F341006A
:103FE0003449087033480078C0F3001018BB324ED3
:103FF0002E49498840F2DC52511A304AB2F9002069
:104000008818FCF770FA07463146FCF7E3F82C49AC
:1040100008602649098840F2DC52511A294AB2F94F
:1040200000208818FCF75FFA07463146FCF7D2F803
:104030002549086000BF4FF07C561C48C08840F2FC
:104040001C71884207DD214908683146FCF7BCF83D
:104050001E4908600DE01548C08840F29C41884226
:1040600007DA1A4908684FF07C51FCF75BF81749EA
:10407000086002F0C5FA13E00B480088401C0A49AA
:10408000088008460088B0F5FA7F09DD0020088026
:104090000848007820F0010006490870FFF7CEFBC1
:1040A000BDE8F081E6060020FC000020C0020020F0
:1040B000F00000201C0000200AD7233DFA00002059
:1040C00074030020F8000020A8030020DC03002077
:1040D00010B54FF4807012490860052211492A205A
:1040E000FFF772FB00212120FFF790FB0121222026
:1040F000FFF78CFB01212520FFF788FB20213120D1
:10410000FFF784FB07212620FFF780FB0F212020EB
:10411000FFF77CFB4FF480700149091F086010BD58
:10412000140C0140A969000870B50546072D01D09F
:104130002748057026480078082841D2DFE800F0BB
:10414000040A1016212E414200F046F806202049AC
:1041500008703BE000F040F804201D49087035E08D
:1041600002201B494870032008702FE0184840784F
:10417000401E174948700846407808B90420087066
:1041800024E01448006884B244F01004114804602C
:1041900005200F4908700A20487017E00C48407845
:1041A000401E0B4948700846407840B909480068ED
:1041B00084B224F01004074804600620087005E06B
:1041C00000BF00BF06200249087000BF00BF70BDDD
:1041D000A1020020405C004010B50748006884B28E
:1041E00024F0040404480460FEF7EEFF4FF43F405F
:1041F0000149086010BD0000405C004008B5012185
:104200000820FFF753FD4FF480511648FDF7CDFE0F
:104210004FF40050ADF8000010208DF8030003208B
:104220008DF8020069460F48FDF732FE4FF400405A
:10423000ADF8000069460B48FDF72AFE4FF48040B8
:10424000ADF8000004208DF8030069460548FDF72D
:104250001FFE4FF400500349143108608000091F0D
:10426000086008BD000C014010B501460020002286
:1042700026E04FF40053144C236001F0800323B177
:104280004FF40043241F236003E04FF400430E4C1F
:1042900023604B06190E4306180E4FF400530A4CC8
:1042A000241F2360084B0C3B1B68C3F380330BB106
:1042B000431CD8B24FF40053034C2360531CDAB2B2
:1042C000082AD6DB10BD0000140C01407047000026
:1042D0004FF6F8710140014A11607047505C004090
:1042E00030B501460E4B1A78002011E003060D4C44
:1042F00004EB9353D3F8003C48F68F742340C4B2C8
:1043000023430406074D05EB9454C4F8003C401CBD
:104310009042EBD341F08003034C236030BD00009A
:1043200004020020005000404C5C004010B54A10D0
:104330005300054A126892B202EBC002121D034CF0
:1043400044F8123010BD0000505C00400060004096
:1043500010B502460F48006880B200EBC200801D15
:104360000D4C04EB40033E290BDD481101F01F0406
:104370000CB9441EA0B24FF4004444EA80241C60EF
:1043800007E0481001F001040CB1441CA0B2840203
:104390001C6010BD505C00400060004010B50C4C2B
:1043A00004EB8003D3F8003C4BF68F7403EA04025D
:1043B00001F480530BB182F4805201F400530BB12D
:1043C00082F40052024C04EB8003C3F8002C10BDB1
:1043D00000500040094B03EB8002D2F8002C4BF652
:1043E0008F7302EA030181F4805181F40051034B81
:1043F00003EB8002C2F8001C704700000050004030
:1044000010B54A105200044B1B689BB203EBC0036B
:10441000024C44F8132010BD505C00400060004086
:10442000044A126892B202EBC002921C024B43F89B
:1044300012107047505C00400060004010B50C4CFA
:1044400004EB8003D3F8003C48F6BF7403EA04028F
:1044500001F010030BB182F0100201F020030BB148
:1044600082F02002024C04EB8003C3F8002C10BD44
:1044700000500040094B03EB8002D2F8002C48F6B4
:10448000BF7302EA030181F0100181F02001034BA8
:1044900003EB8002C2F8001C70470000005000408F
:1044A00010B5074B03EB8002D2F8002C48F68F13AF
:1044B0001A400A43024C04EB8003C3F8002C10BDE1
:1044C0000050004010B500F001F810BD0CB5002000
:1044D000019000903348006840F480303149086012
:1044E00000BF3048006800F4003000900198401C84
:1044F0000190009818B90198B0F5A06FF1D1294842
:10450000006800F4003010B10120009001E00020AC
:1045100000900098012843D12348006840F0100023
:10452000214908600846006820F00300086008463A
:10453000006840F0020008601A4840681949486065
:104540000846406848600846406840F4806048601B
:104550000846406820F47C1048600846406840F4F3
:10456000E81048600846006840F08070086000BFAE
:104570000C48006800F000700028F9D00948406835
:1045800020F00300074948600846406840F00200F8
:10459000486000BF0348406800F00C000828F9D1CB
:1045A0000CBD0000001002400020024010B50020A9
:1045B000FFF7F6FB0121C805FFF768FB10BD0000FF
:1045C00008B52848006880B2001D274931F810005E
:1045D00080B201EB4000009024480068007A09286E
:1045E0002FD0009800782149096808700098401C75
:1045F0000090009800781D49096848700098401C98
:1046000000900098801C0090009931F8020B0091F6
:10461000FCF7BEFC1549096848800098801C009092
:10462000009931F8020B0091FCF7B2FC0F490968C0
:1046300088800098801C0090009800880B490968C9
:10464000C880012009490968087208480068C088C4
:1046500010B9FFF741F901E0FDF77EF8FFF7AAFA7C
:1046600008BD0000505C0040006000409401002044
:104670002DE9F04750480068007800F07F08B8F155
:10468000000F0AD14C480068407A00F0DF004A4928
:10469000096848720020BDE8F087B8F1020F7DD1AB
:1046A00045480068408818B943480068007908B157
:1046B0000220F0E7DFF804913F480068477927F0CF
:1046C00080052C463C480068407900F0800038B1F5
:1046D0003B4901EB8400D0F8000C00F0300606E006
:1046E000374901EB8400D0F8000C00F4405699F8EB
:1046F0000000A84204D91EB12F480068807A08B98A
:104700000220C8E707F0800080B12D4901EB84004A
:10471000D0F8000C00F03000102843D1E0B2FCF7D4
:10472000EBFDE0B23021FFF789FE3BE0244901EBCD
:104730008400D0F8000C00F44050B0F5805F31D117
:10474000C4B9204A92F82C10E0B2FFF701FE1C4ACF
:1047500002EB8401D1F8001C4BF68F7201EA0200D3
:1047600080F4805080F40050154A02EB8401C1F8B7
:10477000000C17E0E0B2FCF7A5FD114A02EB840142
:10478000D1F8001C4BF68F7201EA020080F48050D1
:1047900080F400500A4A02EB840100E008E0C1F80E
:1047A000000C00BF0849096848698047002072E78B
:1047B00000BF02206FE700009401002004020020E7
:1047C0000050004008020020A001002010B504465F
:1047D0002CB90120064909680882002010BD05494E
:1047E000096808688047024800680A30F6E7000058
:1047F00094010020A001002010B502460648006880
:10480000438A32B98888C01A034C24682082002069
:1048100010BD08681844FBE79401002010B5044659
:104820002CB90120064909680882002010BD0549FD
:10483000096888688047024800680C30F6E7000085
:1048400094010020A001002010B504462CB90220DC
:10485000354909680882002010BD002033490880CE
:1048600031480068007800F07F00E0B92E490968FF
:10487000487A00F0200129B12C49097841F0020161
:104880002A4A117000F0400131B12849097801F03D
:10489000FE01264A117005E02449097841F0010122
:1048A000224A11703AE020480068007800F07F004A
:1048B000012801D11D48CFE71B480068007800F0AF
:1048C0007F00022828D1184A1268517901F00F00A0
:1048D00001F080027AB1164B03EB8002D2F8002C73
:1048E00002F03002102A16D1104A127842F001026A
:1048F0000E4B1A700FE00E4B03EB8002D2F8002C27
:1049000002F44052B2F5805F05D1084A127842F0B5
:104910000102064B1A7001E000209DE70549096875
:1049200008698047014897E7940100208C01002026
:1049300000500040A001002010B50E480068C0786B
:104940000D494978884213DC0A480068807878B9B4
:1049500008480068808858B906480068C07805494A
:10496000096888720549096848688047002010BDB9
:104970000220FCE79401002004020020A001002096
:1049800010B507480068407A40F0200004490968E3
:10499000487204490968C8698047002010BD0000BA
:1049A00094010020A00100202DE9F0412A48006870
:1049B000467926F080073C4627480068407900F099
:1049C000800038B1254901EB8400D0F8000C00F0DC
:1049D000300506E0214901EB8400D0F8000C00F41A
:1049E00040551F480078A04208D91B4800684088FD
:1049F00020B91DB118480068807A10B90220BDE8BE
:104A0000F08106F0800080B1144A02EB8401D1F8F5
:104A1000001C48F6BF7201EA020080F010000F4A45
:104A200002EB8401C1F8000C10E00C4A02EB840197
:104A3000D1F8001C4BF68F7201EA020080F480501E
:104A4000064A02EB8401C1F8000C00BF0549096861
:104A5000886980470020D2E7940100200050004080
:104A600004020020A001002010B5174B1B68D97864
:104A7000154B1B685879154B1B689A69904704467B
:104A800011480068807AE8B13CB90F4800680079A5
:104A900018B90D480068807808B1022010BD8CB9A3
:104AA0000B490968C868804707480068407906498B
:104AB0000968C87204480068C07803490968087327
:104AC0000020EBE70220E9E7940100209801002094
:104AD000A001002010B50848006884B244F0080422
:104AE00005480460006884B244F00404024804608D
:104AF000FCF79EFF10BD0000405C004002480068CB
:104B0000401C0149086070471800002010B5134888
:104B1000006840F0010011490860084640681049EB
:104B200008400E494860084600680E4908400B4995
:104B300008600846006820F4802008600846406845
:104B400020F4FE0048604FF41F008860FFF7BAFCB5
:104B50004FF000600449086010BD000000100240E2
:104B60000000FFF8FFFFF6FE08ED00E01FB5012191
:104B7000C802FFF79BF819208DF8000001208DF87E
:104B8000010003208DF8020001208DF80300684623
:104B9000FEF760FE40F22B10ADF8080040F2CF2087
:104BA000ADF804000020ADF80A00ADF8060001A938
:104BB000064800F0D5FA01221146044800F06AF9CF
:104BC0000121024800F049F91FBD0000002C0140FE
:104BD00010B50121244800F04CF9002843D02348A7
:104BE0000068401C2149086021480078401C204989
:104BF000087020480078401C1E4908701E48007844
:104C0000401C1D49087008460078082806DB002073
:104C1000087001F005FA1948FCF7FEFF1448007807
:104C200001280BD1002012490870FEF761FCFFF744
:104C3000BDF81348FCF71AFFFEF7D8FA0D480078C4
:104C400002280CD100200B4908700E4A0E490F486B
:104C5000FDF7AEF90E48FDF7D3FD01F053FB01213E
:104C6000014800F0F7F810BD002C014018000020AA
:104C7000140000201500002016000020A69BC43C54
:104C8000A69B443BB020CD3BB4020020A8020020EC
:104C9000A69BC43B00B589B001210420FFF706F8AC
:104CA0000F20ADF8040003208DF8060018208DF8C1
:104CB000070001A92848FDF7EBF801210846FEF797
:104CC000E5FF40F2E730ADF81C000820ADF8180011
:104CD0000020ADF81E00ADF81A0006A94FF0804084
:104CE00000F03EFA6020ADF808000120ADF80A009F
:104CF0000020ADF80E00ADF8100002A94FF0804082
:104D000000F0D2F80821C80600F01AF902A94FF005
:104D1000804000F01FF90821C80600F06DF902A9D3
:104D20004FF0804000F076F90821C80600F0C2F983
:104D300002A94FF0804000F0C7F90821C80600F032
:104D400001FA0121880700F079F80121880700F0B5
:104D500084F809B000BD00000008014000B589B02A
:104D600001210420FEF7A2FF01210820FEF79EFF8B
:104D7000C020ADF8040003208DF8060018208DF83F
:104D8000070001A92A48FDF783F80320ADF80400C5
:104D900001A92848FDF77CF801210220FEF776FFE3
:104DA00040F2E730ADF81C002320ADF818000020D9
:104DB000ADF81E00ADF81A0006A91F4800F0D0F9A2
:104DC0006020ADF808000120ADF80A004FF47A70B9
:104DD000ADF80E000020ADF8100002A9164800F052
:104DE00063F80821144800F0ABF802A9124800F05B
:104DF000B1F80821104800F0FFF802A90E4800F0B1
:104E000009F908210C4800F055F902A90A4800F0F8
:104E10005BF90821084800F095F90121064800F0E7
:104E20000DF80121044800F018F809B000BD000099
:104E300000080140000C01400004004021B102883C
:104E400042F08002028004E002884FF67F731A402D
:104E500002807047CA430282704721B1028842F043
:104E60000102028004E002884FF6FE731A400280BD
:104E7000704730B50246002000230024158A05EA59
:104E80000103958905EA010413B10CB1012000E08A
:104E9000002030BD1AB183890B43838102E08389EE
:104EA0008B4383817047000070B5002400220023EB
:104EB000058C4FF6FE7635400584028C8388048B82
:104EC0004FF68F752C40B51E2C400D882C43751E57
:104ED0002A400D892A434D882A43144DA8420BD0FD
:104EE000134DA84208D0134DA84205D0124DA84238
:104EF00002D0124DA84213D14FF6F7752A404D89C2
:104F00002A434FF6FB752A408D882A434FF6FF65EA
:104F10002B404FF6FF552B408D892B43CD892B43DA
:104F200083800483CD888586028470BD002C014077
:104F3000003401400040014000440140004801406D
:104F40000A460021018B4FF6F77319401143018384
:104F50007047000070B5002400220023058C4FF636
:104F6000EF7635400584028C8388048B48F6FF7504
:104F70002C404FF6FF452C400D884FF6FF7606EA91
:104F800005252C434FF6DF752A400D8906EA0515E5
:104F90002A434D8806EA05152A43154DA84202D03A
:104FA000144DA8421DD14FF67F752A404D894FF60A
:104FB000FF7606EA05152A434FF6BF752A408D880D
:104FC00006EA05152A434FF6FF352B404FF2FF75D1
:104FD0002B408D8906EA85052B43CD8906EA850598
:104FE0002B4383800483CD880587028470BD000035
:104FF000002C0140003401400A460021018B4FF291
:10500000FF7319404FF6FF7303EA0223194301832C
:105010007047000070B5002400220023058C4FF675
:10502000FF6635400584028C8388848B4FF68F752C
:105030002C404FF6FC752C400D882C434FF6FF5545
:105040002A400D894FF6FF7606EA05252A434D884A
:1050500006EA05252A43154DA84202D0144DA84260
:105060001DD14FF2FF752A404D894FF6FF7606EAB3
:1050700005252A434FF6FF352A408D8806EA052587
:105080002A434EF6FF752B404DF6FF752B408D8958
:1050900006EA05152B43CD8906EA05152B438380C7
:1050A0008483CD888587028470BD0000002C014078
:1050B000003401400A460021818B4FF6F7731940F6
:1050C000114381837047000070B500220023002443
:1050D000058C4EF6FF7635400584038C8488828BE0
:1050E00048F6FF752A404FF6FF452A400D884FF6D7
:1050F000FF7606EA05252A434DF6FF752B400D89FC
:1051000006EA05352B434D8806EA05352B430B4D42
:10511000A84202D00A4DA84208D14BF6FF752C4098
:105120008D894FF6FF7606EA85152C4384808283AD
:10513000CD88A0F84050038470BD0000002C0140D1
:10514000003401400A460021818B4FF2FF73194061
:105150004FF6FF7303EA022319438183704700006F
:10516000002202881D4B98420ED01D4B98420BD056
:10517000B0F1804F08D01B4B984205D01A4B984293
:1051800002D01A4B984204D14FF68F731A404B88C5
:105190001A43174B984207D0164B984204D04FF64B
:1051A000FF431A40CB881A4302808B8883850B8883
:1051B00003850A4B98420BD0094B984208D00E4BFE
:1051C000984205D00D4B984202D00D4B984201D128
:1051D0000B7A03860123838270470000002C014074
:1051E000003401400004004000080040000C004072
:1051F0000010004000140040004001400044014005
:105200000048014000B587B0012144F20800FEF7D4
:105210004DFD25208DF8040000208DF805008DF847
:10522000060001208DF8070001A8FEF713FB4FF4DC
:105230000070ADF8180018208DF81B0003208DF8C1
:105240001A0006A91648FCF723FE4FF48060ADF85B
:10525000180004208DF81B0006A91148FCF718FE61
:105260004FF4964002900020ADF80C00ADF80E000F
:10527000ADF81000ADF814000C20ADF8120002A932
:10528000084800F043F8012240F22551054800F09B
:1052900017F80121034800F007F807B000BD00002F
:1052A000000801400038014021B1828942F40052D7
:1052B000828104E082894DF6FF731A408281704733
:1052C000F0B50346002400260025002040F66A17AA
:1052D000B94200D100BF1846C1F3421401F01F06C5
:1052E000012707FA06F5012C01D10C3004E0022C4D
:1052F00001D1103000E014301AB107682F43076065
:1053000002E00768AF430760F0BD00002DE9F047F9
:1053100086B005460E460024A24600BFA1460027DF
:10532000B08900B100BF2F462C8A4CF6FF700440B4
:10533000F08804432C82AC894EF6F3100440B08808
:1053400031890843718908430443AC81AC8A4FF624
:10535000FF400440B0890443AC8201A8FEF7B6FCCC
:105360001F48874202D1DDF810A001E0DDF80CA053
:10537000A88900F4004040B10AEBCA0000EB0A1013
:1053800031684900B0FBF1F807E00AEBCA0000EB16
:105390000A1031688900B0FBF1F86420B8FBF0F026
:1053A00004012009642101FB1089A88900F4004050
:1053B00040B1322000EBC900B0FBF1F000F0070073
:1053C000044308E0322000EB09106421B0FBF1F047
:1053D00000F00F0004432C8106B0BDE8F087000008
:1053E000003801407047000010B504460121042038
:1053F000FEF75CFC3CB11048006880B220F002006F
:105400000D49086016E00C48006880B240F00200C8
:10541000094908600948006820F47F2007490860AE
:105420000846006840F44C30086089140348001FA7
:10543000FCF7B9FD10BD0000405C004004080140CD
:1054400010B500F031F8FFF7B1F800F00FF80020C8
:1054500005490870FFF7C8FF642000F0CFFD012068
:10546000FFF7C2FF10BD00003A00002010B5084849
:10547000084908600220096808720748074908605F
:10548000074808490860054909680868804710BD51
:105490001407002094010020080200209801002039
:1054A00038020020A001002008B514208DF800006B
:1054B00001208DF8010000208DF8020001208DF8F8
:1054C00003006846FEF7C6F908BD000010B537486E
:1054D0000068374908800846008800F48060354934
:1054E0000988084030B14FF6FF3030490860324932
:1054F000486880472E48008800F400502D490988EC
:10550000084018B14DF6FF70284908602848008807
:1055100000F4805027490988084030B14EF6FF70EA
:10552000224908600020FEF7FFFD2148008800F4B2
:10553000006020490988084060B12048007810B117
:10554000FFF7C8FA02E00220FEF7EEFD4FF2FF700F
:10555000164908601648008800F40070154909884B
:10556000084040B14FF6FF501049086014480078D9
:10557000401C134908700E48008800F480700D49E3
:105580000988084030B14FF6FF60084908600720DD
:10559000FEF7CAFD0648008800F400400549098866
:1055A000084008B1FBF7FAFC10BD0000445C004065
:1055B000C40100209E01002008020020A00200205B
:1055C000C601002010B5FFF781FF10BD00BFFEE748
:1055D00070B5024600200AE0145C064B1D781B786B
:1055E0005B1C044E3370044B5C55431CD8B288429C
:1055F000F2DB70BD3D0000208805002010B56D482D
:1056000000786D490978884263DD6A4800786A4904
:105610000978401A3F281FDB0020684908703F20A6
:105620006749087000240BE0634801780078401C4B
:10563000614A10706348415C614A601C1154C4B2F5
:105640003F2CF1DB40224FF48C715D4800F0BEF836
:105650000220FEF70FFFABE058480078401C574986
:10566000087008460078584909788842F3D100202C
:10567000524908704F4800784F490978401A5049FC
:105680000870002415E04B4800784B490978401A0F
:10569000A04208DD4848007820444A49095C484A4D
:1056A000601C115403E00021454A601C1154601C29
:1056B000C4B23F2CE7DB3F4800783F4908704022E6
:1056C0004FF48C713E4800F081F80220FEF7D2FEC4
:1056D0006EE03848007838490978884268DA3648F8
:1056E0000078C0F580703349097808443F281FDBF3
:1056F0000020324908703F203149087000240BE037
:105700002D4801780078401C2B4A10702D48415CD0
:105710002B4A601C1154C4B23F2CF1DB40224FF4E1
:105720008C71274800F052F80220FEF7A3FE3FE0FC
:1057300022480078401C2149087008460078224918
:105740000978884234D100201C4908701A48007832
:10575000404218490978084419490870002418E0A3
:1057600015480078C0F58070124909780844A042B5
:1057700009DD114800782044C0B21249095C104A82
:10578000601C115403E000210D4A601C1154601C80
:10579000C4B23F2CE4DB0748007807490870402278
:1057A0004FF48C71064800F011F80220FEF762FEFB
:1057B00010BD00003D0000203C0000203E00002005
:1057C00030070020880500203B000020F0B514467B
:1057D00004F1010C4FEA6C07DFF824C00CEB410325
:1057E0003D460AE00678401C90F800C046EA0C22CC
:1057F00023F8022B9B1C401C6D1E002DF2D1F0BD26
:1058000000600040490050EAC12018BF04204A0D42
:1058100018BF40F0010040F2FF72B2EB515F08BFC9
:1058200040F00200012808BF05207047410008022F
:1058300018BF04200A0E18BF40F001004FF07F424D
:1058400032EA010108BF40F00200012808BF05202C
:1058500070472DE9F0414F1E00EBC7010446D1E926
:10586000000115461E4637F006020DD02A46334683
:10587000FAF7C7FD7F1E04EBC703D3E90023FAF74D
:1058800019FD37F00602F1D1022F25D0042F13D0D5
:10589000062F18BFBDE8F0812A463346FAF7B1FD5E
:1058A000D4E90A23FAF706FD2A463346FAF7A9FD9A
:1058B000D4E90823FAF7FEFC2A463346FAF7A1FD9D
:1058C000D4E90623FAF7F6FC2A463346FAF799FD9F
:1058D000D4E90423FAF7EEFC2A463346FAF791FDA1
:1058E000D4E90223FAF7E6FC2A463346FAF789FDA3
:1058F000D4E90023BDE8F041FAF7DCBC0122FAF755
:10590000BBBF0022134610461146FAF746BF0000FF
:10591000024A00201107FAF7AFBF000001FDFFFFA8
:105920000121FAF7B3BEFAF7FDBB00210846FAF7EA
:1059300083BC6FF05E010807FAF7A8BE2DE9F04DB1
:105940000D4614464FF07F41B1EB440F9EBF4FF020
:10595000FF312960BDE8F08D4FF0004040EA04219E
:10596000C4F3C750783810F01F024A4B4FEA601C4E
:10597000C2F120067B44C4F3C750A0F178004FEA7F
:10598000601003EB800053F82C3008BFD0E901C64B
:1059900012D0D0F804C093402CFA06F73B43876836
:1059A0000CFA02FC27FA06F8C06807FA02F2F04087
:1059B0004CEA080C42EA0006A3FB0132ACFB01C032
:1059C000A6FB016101EB0C068E4234BF4FF0010CC7
:1059D0004FF0000CC1186144BCF1000F02D08142AD
:1059E00002D903E0814201D2012000E000201044EE
:1059F00000F120024FEA92188006CA0C40EA4230B9
:105A00004F03C5F80080FAF76EFD82463846FAF774
:105A100073FD6FF01201FAF739FE07463046FAF7C8
:105A20006BFD6FF02501FAF731FE8346394650468B
:105A3000FAF778FB5946FAF775FB00F500666FF345
:105A40000B0651463046FAF7BFFB3946FAF7BCFB66
:105A50005946FAF7BCFB1049FAF7BCFB07460F4959
:105A60003046FAF7B7FB3946FAF75CFB07460C49B4
:105A70003046FAF7AFFB3946FAF754FB14F0004F03
:105A800008BFBDE8F08DC8F1805180F0004029606A
:105A9000BDE8F08D28110000DB0FC92F22AAFD29D7
:105AA0000000C92F02E008C8121F08C1002AFAD15D
:105AB00070477047002001E001C1121F002AFBD18E
:105AC000704700000149086070470000A4020020F0
:105AD0002DE9F04D8D4F21F0004A86B005460C4669
